:020000040800F2
:1000000000800020D93000081D300008253000088D
:100010002D300008353000083D3000080000000099
:100020000000000000000000000000004530000853
:100030005330000800000000613000086F300008F5
:100040002931000829310008293100082931000828
:100050002931000829310008293100082931000818
:100060002931000829310008293100082931000808
:1000700029310008293100082931000829310008F8
:10008000293100080000000029310008293100084A
:1000900029310008293100082931000829310008D8
:1000A00029310008293100082931000829310008C8
:1000B00029310008293100082931000829310008B8
:1000C00029310008293100082931000829310008A8
:1000D000293100087D300008293100082931000845
:1000E0002931000829310008293100082931000888
:1000F00029310008293100082931000800000000DA
:10010000000000002931000800000000293100082B
:1001100029310008000000002931000829310008B9
:100120002931000829310008293100082931000847
:1001300029310008000000000000000029310008FB
:1001400029310008293100080000000000000000EB
:10015000000000000000000000000000000000009F
:10016000000000000000000000000000293100082D
:10017000293100080000000000000000000000001D
:10018000000000002931000800000000000000000D
:10019000000000000000000000000000000000005F
:1001A000000000000000000029310008293100088B
:1001B0002931000829310008293100080000000019
:1001C00000000000293100080000000000000000CD
:0801D000293100082931000863
:1001D80010B5054C237833B9044B13B10448AFF379
:1001E80000800123237010BD0C00002000000000D7
:1001F8002C31000808B5034B1BB103490348AFF382
:10020800008008BD00000000100000202C3100080C
:1002180053B94AB9002908BF00281CBF4FF0FF3165
:100228004FF0FF3000F06AB9ADF1080C6DE904CE6B
:1002380000F006F8DDF804E0DDE9022304B07047B9
:100248002DE9F047089D0C46002B4ED194468C456D
:100258008646B2FA82F262D94AB1C2F120039140CD
:1002680020FA03F30CFA02FC194300FA02FE4FEAE3
:100278001C471FFA8CF6B1FBF7F44FEA1E4307FB45
:10028800141143EA014304FB06F199420AD91CEB15
:10029800030304F1FF3080F01281994240F20F818C
:1002A800023C6344591A1FFA8EF3B1FBF7F007FBBF
:1002B800101143EA014300FB06F69E420AD91CEBE3
:1002C800030300F1FF3180F0FC809E4240F2F98088
:1002D800634402389B1B40EA044000211DB1D3400F
:1002E8000022C5E90032BDE8F0878B4205D90DB17F
:1002F800C5E9000100210846F5E7B3FA83F10029B2
:1003080046D1A34202D39042C0F0F080861A64EB33
:1003180003030120002DE6D0C5E90063E3E7002AC6
:1003280040F09080A1EB0C044FEA1C481FFA8CF7B0
:100338000121B4FBF8F64FEA1E4308FB164443EAD2
:10034800044307FB06F0984208D91CEB030306F1A7
:10035800FF3402D2984200F2CD8026461C1A1FFABA
:100368008EF3B4FBF8F008FB104443EA044300FBA7
:1003780007F79F4208D91CEB030300F1FF3402D2B0
:100388009F4200F2B0802046DB1B40EA0640A5E70A
:10039800C1F120068B4022FA06F71F4320FA06FC1B
:1003A80004FA01F343EA0C03F44000FA01F8380CAC
:1003B8004FEA1349B4FBF0FE1FFA87FC00FB1E440A
:1003C80049EA04440EFB0CF9A14502FA01F20AD9E4
:1003D8003C190EF1FF3A80F08480A14540F28180FB
:1003E800AEF1020E3C44A4EB09041FFA83F9B4FBF6
:1003F800F0F300FB134449EA044403FB0CFCA44556
:1004080007D93C1903F1FF3067D2A44565D9023BEF
:100418003C4443EA0E40A0FB0293A4EB0C049C422C
:10042800CE469C4651D34ED055B1B8EB0E0364EB83
:100438000C0404FA06F6CB401E43CC40C5E9006420
:10044800002150E7C2F1200320FA03F10CFA02FC64
:1004580024FA03F394400C434FEA1C4800FA02FEC6
:100468001FFA8CF7B3FBF8F008FB1031230C43EAB2
:10047800014300FB07F1994208D91CEB030300F183
:10048800FF362CD299422AD9023863445B1AA4B2A7
:10049800B3FBF8F108FB113344EA034401FB07F30B
:1004A800A34208D91CEB040401F1FF3613D2A3427E
:1004B80011D902396444E41A41EA004139E7044693
:1004C800F0E6084606E7C845AED2B9EB020E63EB84
:1004D800070C0138A8E73146EDE7034699E73046AF
:1004E800D4E7D6467FE7634402384DE706462346FD
:1004F80008460FE7023E634430E700BF704700BF7D
:1005080070B50D4D0D4C641BA4100026A64209D1F0
:100518000B4D0C4C02F006FE641BA4100026A642EC
:1005280005D170BD55F8043B98470136EEE755F8FC
:10053800043B98470136F2E77C3100087C3100081B
:100548007C3100088031000880B400AF064BD3F836
:100558008830054A43F47003C2F8883000BFBD46AE
:100568005DF8047B704700BF00ED00E080B483B005
:1005780000AF7860044A7B68136000BF0C37BD4643
:100588005DF8047B704700BF0000002080B48BB08A
:1005980000AFF860B9607A60FB681A68BB687B6175
:1005A8007B6993FAA3F33B613B69BB61BB69002B91
:1005B80001D1202303E0BB69B3FA83F3DBB25B000C
:1005C800032101FA03F3DB431A40BB683B623B6A31
:1005D80093FAA3F3FB61FB697B627B6A002B01D171
:1005E800202303E07B6AB3FA83F3DBB25B0079680C
:1005F80001FA03F31A43FB681A6000BF2C37BD46A3
:100608005DF8047B704780B485B000AFF860B960CE
:100618007A60FB685A68BB68DB431A40BB68796834
:1006280001FB03F31A43FB685A6000BF1437BD4649
:100638005DF8047B704780B48BB000AFF860B96098
:100648007A60FB689A68BB687B617B6993FAA3F35D
:100658003B613B69BB61BB69002B01D1202303E0EF
:10066800BB69B3FA83F3DBB25B00032101FA03F33E
:10067800DB431A40BB683B623B6A93FAA3F3FB6116
:10068800FB697B627B6A002B01D1202303E07B6A34
:10069800B3FA83F3DBB25B00796801FA03F31A4318
:1006A800FB689A6000BF2C37BD465DF8047B704735
:1006B80080B48BB000AFF860B9607A60FB68DA6824
:1006C800BB687B617B6993FAA3F33B613B69BB61C0
:1006D800BB69002B01D1202303E0BB69B3FA83F384
:1006E800DBB25B00032101FA03F3DB431A40BB686A
:1006F8003B623B6A93FAA3F3FB61FB697B627B6A0B
:10070800002B01D1202303E07B6AB3FA83F3DBB229
:100718005B00796801FA03F31A43FB68DA6000BFEB
:100728002C37BD465DF8047B704780B48BB000AFB2
:10073800F860B9607A60FB681A6ABB687B617B699C
:1007480093FAA3F33B613B69BB61BB69002B01D101
:10075800202303E0BB69B3FA83F3DBB29B000F21CC
:1007680001FA03F3DB431A40BB683B623B6A93FA26
:10077800A3F3FB61FB697B627B6A002B01D1202319
:1007880003E07B6AB3FA83F3DBB29B00796801FA72
:1007980003F31A43FB681A6200BF2C37BD465DF8A5
:1007A800047B704780B48BB000AFF860B9607A60A2
:1007B800FB685A6ABB681B0A7B617B6993FAA3F3DF
:1007C8003B613B69BB61BB69002B01D1202303E07E
:1007D800BB69B3FA83F3DBB29B000F2101FA03F381
:1007E800DB431A40BB681B0A3B623B6A93FAA3F3DC
:1007F800FB61FB697B627B6A002B01D1202303E04C
:100808007B6AB3FA83F3DBB29B00796801FA03F3DE
:100818001A43FB685A6200BF2C37BD465DF8047B5B
:10082800704780B588B000AF786039603B681B6856
:100838003B613B6993FAA3F3FB60FB687B617B69CF
:10084800002B01D1202303E07B69B3FA83F3DBB2E9
:10085800FB6148E03B681A680121FB6901FA03F370
:100868001340BB61BB69002B3AD03B685B68012B26
:1008780003D03B685B68022B0ED13B689B681A4625
:10088800B9697868FFF7D7FE3B6819683B68DB6889
:100898001A467868FFF7B7FE3B681B691A46B969BC
:1008A8007868FFF705FF3B685B68022B11D1BB69CD
:1008B800FF2B07D83B685B691A46B9697868FFF768
:1008C80034FF06E03B685B691A46B9697868FFF748
:1008D80069FF3B685B681A46B9697868FFF756FE96
:1008E800FB690133FB613B681A68FB6922FA03F371
:1008F800002BAFD1002318462037BD4680BD00002D
:1009080080B400AF054B9B68044A43F4804393606E
:1009180000BFBD465DF8047B704700BF0070004013
:1009280080B582B000AF78607B68002B01D10123CD
:1009380050E07B68D3F88830002B14D17B68002204
:1009480083F88420786800F0FBFB7B68D3F8C43018
:10095800002B03D17B68214AC3F8C4207B68D3F8F5
:10096800C430786898477B682422C3F888207B685D
:100978001B681A687B681B6822F001021A607B6892
:100988009B6A002B02D0786800F0F8FE786800F0C7
:1009980029FC0346012B01D101231BE07B681B685E
:1009A8005A687B681B6822F490425A607B681B680F
:1009B8009A687B681B6822F02A029A607B681B6829
:1009C8001A687B681B6842F001021A60786800F0B8
:1009D80077FF034618460837BD4680BD7D2F0008BF
:1009E80080B5BAB000AF78607B681B68DB69C7F870
:1009F800E4307B681B681B68C7F8E0307B681B68BD
:100A08009B68C7F8DC30D7F8E42040F60F031340A2
:100A1800C7F8D830D7F8D830002B1BD1D7F8E43036
:100A280003F02003002B15D0D7F8E03003F02003A3
:100A3800002B05D1D7F8DC3003F08053002B09D008
:100A48007B685B6F002B00F012837B685B6F7868B4
:100A580098470CE3D7F8D830002B00F02981D7F855
:100A6800DC20904B1340002B06D1D7F8E0208E4BAA
:100A78001340002B00F01C81D7F8E43003F0010389
:100A8800002B11D0D7F8E03003F48073002B0BD083
:100A98007B681B6801221A627B68D3F8903043F0A8
:100AA80001027B68C3F89020D7F8E43003F0020312
:100AB800002B11D0D7F8DC3003F00103002B0BD04A
:100AC8007B681B6802221A627B68D3F8903043F077
:100AD80004027B68C3F89020D7F8E43003F00403DD
:100AE800002B11D0D7F8DC3003F00103002B0BD01A
:100AF8007B681B6804221A627B68D3F8903043F045
:100B080002027B68C3F89020D7F8E43003F00803AA
:100B1800002B17D0D7F8E03003F02003002B05D1C5
:100B2800D7F8DC205F4B1340002B0BD07B681B6889
:100B380008221A627B68D3F8903043F008027B6879
:100B4800C3F89020D7F8E43003F40063002B12D0E8
:100B5800D7F8E03003F08063002B0CD07B681B686B
:100B68004FF400621A627B68D3F8903043F0200299
:100B78007B68C3F890207B68D3F89030002B00F096
:100B88007882D7F8E43003F02003002B13D0D7F88D
:100B9800E03003F02003002B05D1D7F8DC3003F058
:100BA8008053002B07D07B685B6F002B03D07B68DA
:100BB8005B6F786898477B68D3F89030C7F8D43073
:100BC8007B681B689B6803F04003402B05D0D7F86F
:100BD800D43003F02803002B58D0786800F087FF42
:100BE8007B681B689B6803F04003402B48D17B68F7
:100BF8001B680833C7F89C30D7F89C3053E8003F8F
:100C0800C7F89830D7F8983023F04003C7F8D030A9
:100C18007B681B680833D7F8D020C7F8A820C7F826
:100C2800A430D7F8A410D7F8A82041E80023C7F8C3
:100C3800A030D7F8A030002BD9D17B68D3F880300A
:100C4800002B17D07B68D3F88030184A9A637B68EA
:100C5800D3F88030184601F01AFC0346002B1FD049
:100C68007B68D3F880309B6B7A68D2F88020104676
:100C7800984715E07B68D3F8A430786898470FE068
:100C88007B68D3F8A4307868984709E07B68D3F884
:100C9800A430786898477B680022C3F89020E8E180
:100CA80000BFE6E10100001020010004C31B00089A
:100CB8007B68DB6E012B40F07681D7F8E43003F0D7
:100CC8001003002B00F06F81D7F8E03003F0100319
:100CD800002B00F068817B681B6810221A627B6811
:100CE8001B689B6803F04003402B40F0DC807B6866
:100CF800D3F880301B685B68A7F8BE30B7F8BE3001
:100D0800002B00F0B1807B68B3F85C30B7F8BE20E8
:100D18009A4280F0A9807B68B7F8BE20A3F85E20CD
:100D28007B68D3F880301B681B6803F02003002B16
:100D380040F087807B681B68C7F88830D7F8883010
:100D480053E8003FC7F88430D7F8843023F4807321
:100D5800C7F8B8307B681B681A46D7F8B830C7F8A8
:100D68009430C7F89020D7F89010D7F8942041E82D
:100D78000023C7F88C30D7F88C30002BDAD17B6889
:100D88001B6808337B677B6F53E8003F3B673B6F0B
:100D980023F00103C7F8B4307B681B680833D7F821
:100DA800B420C7F88020FB67F96FD7F8802041E8A6
:100DB8000023BB67BB6F002BE1D17B681B6808333E
:100DC8003B663B6E53E8003FFB65FB6D23F0400339
:100DD800C7F8B0307B681B680833D7F8B020FA66CC
:100DE800BB66B96EFA6E41E800237B667B6E002B0A
:100DF800E3D17B682022C3F88C207B680022DA6666
:100E08007B681B68FB64FB6C53E8003FBB64BB6CEE
:100E180023F01003C7F8AC307B681B681A46D7F874
:100E2800AC30BB657A65796DBA6D41E800233B65E6
:100E38003B6D002BE4D17B68D3F88030184601F075
:100E4800CDFA7B6802221A677B68D3F8C0307A68CB
:100E5800B2F85C107A68B2F85E2092B28A1A92B23E
:100E680011467868984706E17B68B3F85C30B7F8B4
:100E7800BE209A4240F0FF807B68D3F880301B6820
:100E88001B6803F02003202B40F0F5807B680222CA
:100E98001A677B68D3F8C0307A68B2F85C201146CC
:100EA80078689847E7E07B68B3F85C207B68B3F81C
:100EB8005E309BB2D31AA7F8CE307B68B3F85E30A9
:100EC8009BB2002B00F0D980B7F8CE30002B00F091
:100ED800D4807B681B68BB63BB6B53E8003F7B63B4
:100EE8007B6B23F49073C7F8C8307B681B681A467D
:100EF800D7F8C8307B643A64396C7A6C41E80023CF
:100F0800FB63FB6B002BE4D17B681B6808337B62B7
:100F18007B6A53E8003F3B623B6A23F0805323F02F
:100F28000103C7F8C4307B681B680833D7F8C420AE
:100F38003A63FB62F96A3A6B41E80023BB62BB6A19
:100F4800002BE1D17B682022C3F88C207B6800222B
:100F5800DA667B6800225A677B681B683B613B69DD
:100F680053E8003FFB60FB6823F01003C7F8C0306C
:100F78007B681B681A46D7F8C030FB61BA61B9694B
:100F8800FA6941E800237B617B69002BE4D17B6827
:100F980002221A677B68D3F8C030B7F8CE20114612
:100FA8007868984769E0D7F8E43003F48013002B99
:100FB80010D0D7F8DC3003F48003002B0AD07B680C
:100FC8001B684FF480121A627B68D3F8B4307868D3
:100FD800984755E0D7F8E43003F08003002B14D08D
:100FE800D7F8E03003F08003002B05D1D7F8DC30C8
:100FF80003F40003002B08D07B689B6F002B3ED0C6
:101008007B689B6F7868984739E0D7F8E43003F03D
:101018004003002B09D0D7F8E03003F04003002B41
:1010280003D0786800F0DDFD2AE0D7F8E43003F457
:101038000003002B0BD0D7F8E03003F08043002BDF
:1010480005D07B68D3F8BC307868984718E0D7F8A3
:10105800E43003F08073002B12D0D7F8E030002B77
:101068000EDA7B68D3F8B8307868984708E000BF94
:1010780006E000BF04E000BF02E000BF00E000BFE0
:10108800E837BD4680BD00BF80B483B000AF78604C
:1010980000BF0C37BD465DF8047B704780B483B051
:1010A80000AF786000BF0C37BD465DF8047B704721
:1010B80080B483B000AF786000BF0C37BD465DF8E0
:1010C800047B704780B483B000AF786000BF0C37F2
:1010D800BD465DF8047B704780B483B000AF78608C
:1010E80000BF0C37BD465DF8047B704780B483B001
:1010F80000AF786000BF0C37BD465DF8047B7047D1
:1011080080B483B000AF786000BF0C37BD465DF88F
:10111800047B704780B483B000AF786000BF0C37A1
:10112800BD465DF8047B704780B483B000AF78603B
:101138000B467B8000BF0C37BD465DF8047B7047CB
:1011480080B483B000AF78607B681A4AC3F89420F3
:101158007B68194AC3F898207B68184AC3F89C2012
:101168007B68174AC3F8A0207B68164AC3F8A420F6
:101178007B68154AC3F8A8207B68144AC3F8AC20DA
:101188007B68134AC3F8B0207B68124AC3F8B420BE
:101198007B68114AC3F8B8207B68104AC3F8BC20A2
:1011A8007B680F4AC3F8C02000BF0C37BD465DF806
:1011B800047B7047A510000891100008CD100008A6
:1011C800B9100008E1100008F5100008091100081E
:1011D8001D110008451C0008591C00086D1C00085A
:1011E800311100082DE9B04F8CB000AF78610023B1
:1011F80087F82A307B699A687B691B691A437B697F
:101208005B691A437B69DB691343FB627B691B6873
:101218001A68AB4B13407A691268F96A0B4313607A
:101228007B691B685B6823F440517B69DA687B69DA
:101238001B680A435A607B699B69FB627B691B6870
:10124800A04A934204D07B691B6AFA6A1343FB6283
:101258007B691B689B6823F06E4323F430637A69CB
:101268001268F96A0B4393607B691B68DB6A23F099
:101278000F017B695A6A7B691B680A43DA627B69DA
:101288001B68914A934225D1904BD3F8883003F0DC
:101298000303032B1AD801A252F823F0B512000851
:1012A800C5120008BD120008CD120008012387F8F6
:1012B8002B30D6E0022387F82B30D2E0042387F8BE
:1012C8002B30CEE0082387F82B30CAE0102387F8AC
:1012D8002B30C6E07B691B687D4A934238D17B4B33
:1012E800D3F8883003F00C030C2B2DD801A252F848
:1012F80023F000BF311300085113000851130008F0
:101308005113000841130008511300085113000835
:10131800511300083913000851130008511300082D
:101328005113000849130008002387F82B3098E070
:10133800022387F82B3094E0042387F82B3090E0C1
:10134800082387F82B308CE0102387F82B3088E0AF
:101358007B691B685F4A934225D15C4BD3F8883080
:1013680003F03003302B16D0302B18D8202B0AD09E
:10137800202B14D8002B02D0102B08D00FE000230C
:1013880087F82B306DE0022387F82B3069E00423BF
:1013980087F82B3065E0082387F82B3061E01023AD
:1013A80087F82B305DE07B691B684B4A934225D157
:1013B800464BD3F8883003F0C003C02B16D0C02B9F
:1013C80018D8802B0AD0802B14D8002B02D0402BA1
:1013D80008D00FE0002387F82B3042E0022387F87B
:1013E8002B303EE0042387F82B303AE0082387F8B7
:1013F8002B3036E0102387F82B3032E07B691B68EE
:10140800304A93422AD1314BD3F8883003F44063F1
:10141800B3F5406F1AD0B3F5406F1BD8B3F5006F22
:101428000CD0B3F5006F15D8002B03D0B3F5806F3F
:1014380008D00FE0002387F82B3012E0022387F84A
:101448002B300EE0042387F82B300AE0082387F8B6
:101458002B3006E0102387F82B3002E0102387F8A2
:101468002B307B691B68174A934240F0A88097F895
:101478002B30082B34D801A252F823F0A914000805
:10148800E9140008B1140008E9140008B7140008AA
:10149800E9140008E9140008E9140008BF1400085A
:1014A80000F0EEFD786221E00C4B7B621EE000F05C
:1014B80079FD78621AE04FF400437B6216E000BFC2
:1014C800F369FFCF0080004000380140001002405F
:1014D8000044004000480040004C00400024F40054
:1014E80000237B62012387F82A3000BF7B6A002B28
:1014F80000F02A817B695B6A9E4A32F813301A46EB
:101508007B6AB3FBF2F3BB617B695A6813465B00E5
:101518001344BA699A4205D37B695B681B03BA69AD
:101528009A4203D9012387F82A300DE17B6A002209
:10153800BB60FA607B695B6A8E4A32F813309BB2F3
:1015480000223B607A60D7E90023D7E90201FEF761
:101558005FFE02460B46104619464FF000024FF058
:1015680000030B0243EA10630202796949684908DB
:1015780000200C46054612EB040843EB05097B697D
:101588005B6800229A46934652465B464046494667
:10159800FEF73EFE02460B4613463B623B6AB3F536
:1015A800407F08D33B6AB3F5801F04D27B691B6870
:1015B8003A6ADA60C8E0012387F82A30C4E07B6918
:1015C800DB69B3F5004F67D197F82B30082B28D883
:1015D80001A252F823F000BF051600080D160008F6
:1015E800151600082B1600081B1600082B160008F5
:1015F8002B1600082B1600082316000800F040FDE3
:10160800786214E000F052FD786210E05A4B7B6279
:101618000DE000F0C7FC786209E04FF400437B62FC
:1016280005E000237B62012387F82A3000BF7B6A2C
:10163800002B00F089807B695B6A4E4A32F81330D0
:101648001A467B6AB3FBF2F35A007B695B685B0856
:101658001A447B695B68B2FBF3F33B623B6A0F2B6E
:1016680016D93B6AB3F5803F12D23B6A9BB223F08E
:101678000F03FB833B6A5B089BB203F007039AB234
:10168800FB8B1343FB837B691B68FA8BDA605BE097
:10169800012387F82A3057E097F82B30082B28D8F1
:1016A80001A252F823F000BFD5160008DD16000885
:1016B800E5160008FB160008EB160008FB160008E4
:1016C800FB160008FB160008F316000800F0D8FC0B
:1016D800786214E000F0EAFC786210E0264B7B6246
:1016E8000DE000F05FFC786209E04FF400437B6294
:1016F80005E000237B62012387F82A3000BF7B6A5C
:10170800002B21D07B695B6A1A4A32F813301A46DB
:101718007B6AB3FBF2F27B695B685B081A447B69FE
:101728005B68B2FBF3F33B623B6A0F2B09D93B6A58
:10173800B3F5803F05D23B6A9AB27B691B68DA60D1
:1017480002E0012387F82A307B690122A3F86A2086
:101758007B690122A3F868207B6900225A677B69AC
:1017680000229A6797F82A3018463037BD46BDE8F8
:10177800B08F00BF4C3100080024F40080B483B05F
:1017880000AF78607B689B6A03F00803002B0AD0DF
:101798007B681B685B6823F400417B689A6B7B68F5
:1017A8001B680A435A607B689B6A03F00103002B9D
:1017B8000AD07B681B685B6823F400317B68DA6AAF
:1017C8007B681B680A435A607B689B6A03F00203C4
:1017D800002B0AD07B681B685B6823F480317B6828
:1017E8001A6B7B681B680A435A607B689B6A03F024
:1017F8000403002B0AD07B681B685B6823F48021F4
:101808007B685A6B7B681B680A435A607B689B6AD3
:1018180003F01003002B0AD07B681B689B6823F435
:1018280080517B68DA6B7B681B680A439A607B6827
:101838009B6A03F02003002B0AD07B681B689B6817
:1018480023F400517B681A6C7B681B680A439A6012
:101858007B689B6A03F04003002B1AD07B681B68E7
:101868005B6823F480117B685A6C7B681B680A43A9
:101878005A607B685B6CB3F5801F0AD17B681B6874
:101888005B6823F4C0017B689A6C7B681B680A4319
:101898005A607B689B6A03F08003002B0AD07B6840
:1018A8001B685B6823F400217B68DA6C7B681B6823
:1018B8000A435A6000BF0C37BD465DF8047B704789
:1018C80080B598B002AF78607B680022C3F890209A
:1018D80000F03AFB78657B681B681B6803F0080317
:1018E800082B2FD16FF07E4300937B6D00224FF4BD
:1018F8000011786800F08EF80346002B22D07B6830
:101908001B68BB63BB6B53E8003F7B637B6B23F0B7
:1019180080033B657B681B681A463B6D7B643A64B1
:10192800396C7A6C41E80023FB63FB6B002BE6D132
:101938007B682022C3F888207B68002283F88420F3
:10194800032363E07B681B681B6803F00403042B14
:1019580049D16FF07E4300937B6D00224FF48001E4
:10196800786800F057F80346002B3CD07B681B686A
:101978007B627B6A53E8003F3B623B6A23F49073C7
:10198800FB647B681B681A46FB6C3B63FA62F96A66
:101998003A6B41E80023BB62BB6A002BE6D17B6847
:1019A8001B6808333B613B6953E8003FFB60FB68F9
:1019B80023F00103BB647B681B680833BA6CFA61C7
:1019C800BB61B969FA6941E800237B617B69002B37
:1019D800E5D17B682022C3F88C207B68002283F83D
:1019E8008420032312E07B682022C3F888207B68C8
:1019F8002022C3F88C207B680022DA667B680022EC
:101A08001A677B68002283F8842000231846583719
:101A1800BD4680BD80B584B000AFF860B9603B605A
:101A28001346FB714FE0BB69B3F1FF3F4BD000F0A9
:101A38008BFA02463B68D31ABA699A4202D3BB6949
:101A4800002B01D103234EE0FB681B681B6803F0E1
:101A58000403002B37D0BB68802B34D0BB68402BE5
:101A680031D0FB681B68DB6903F00803082B10D131
:101A7800FB681B6808221A62F86800F038F8FB68EF
:101A88000822C3F89020FB68002283F884200123F1
:101A980029E0FB681B68DB6903F40063B3F5006F9A
:101AA80011D1FB681B684FF400621A62F86800F0F5
:101AB8001EF8FB682022C3F89020FB68002283F8F8
:101AC800842003230FE0FB681B68DA69BB681340B6
:101AD800BA689A420CBF01230023DBB21A46FB798D
:101AE8009A42A0D0002318461037BD4680BD80B466
:101AF80095B000AF78607B681B687B637B6B53E8AD
:101B0800003F3B633B6B23F49073FB647B681B686B
:101B18001A46FB6C3B64FA63F96B3A6C41E80023A4
:101B2800BB63BB6B002BE6D17B681B6808333B6249
:101B38003B6A53E8003FFB61FB6923F0805323F0C5
:101B48000103BB647B681B680833BA6CFA62BB622A
:101B5800B96AFA6A41E800237B627B6A002BE3D109
:101B68007B68DB6E012B18D17B681B68FB60FB6808
:101B780053E8003FBB60BB6823F010037B647B68BD
:101B88001B681A467B6CBB617A617969BA6941E85E
:101B980000233B613B69002BE6D17B682022C3F818
:101BA8008C207B680022DA667B6800225A6700BFB7
:101BB8005437BD465DF8047B704780B584B000AFEC
:101BC80078607B689B6AFB60FB680022A3F85E2054
:101BD800FB68D3F8A430F868984700BF1037BD46B3
:101BE80080BD80B588B000AF78607B681B68FB60FB
:101BF800FB6853E8003FBB60BB6823F04003FB6110
:101C08007B681B681A46FB69BB617A617969BA69A6
:101C180041E800233B613B69002BE6D17B68202229
:101C2800C3F888207B6800229A677B68D3F89830CD
:101C38007868984700BF2037BD4680BD80B483B020
:101C480000AF786000BF0C37BD465DF8047B704775
:101C580080B483B000AF786000BF0C37BD465DF834
:101C6800047B704780B483B000AF786000BF0C3746
:101C7800BD465DF8047B704780B485B000AF7860DE
:101C88007B6893F88430012B01D1022327E07B681D
:101C9800012283F884207B682422C3F888207B688B
:101CA8001B681B68FB607B681B681A687B681B687D
:101CB80022F001021A60FB6823F00053FB607B6886
:101CC80000225A667B681B68FA681A607B682022C3
:101CD800C3F888207B68002283F8842000231846F4
:101CE8001437BD465DF8047B704780B584B000AFFB
:101CF800786039607B6893F88430012B01D1022326
:101D08002DE07B68012283F884207B682422C3F8B5
:101D180088207B681B681B68FB607B681B681A68E7
:101D28007B681B6822F001021A607B681B689B684D
:101D380023F060417B681B683A680A439A607868B8
:101D480000F050F87B681B68FA681A607B682022EC
:101D5800C3F888207B68002283F884200023184673
:101D68001037BD4680BD80B584B000AF786039605B
:101D78007B6893F88430012B01D102232DE07B6826
:101D8800012283F884207B682422C3F888207B689A
:101D98001B681B68FB607B681B681A687B681B688C
:101DA80022F001021A607B681B689B6823F060615F
:101DB8007B681B683A680A439A60786800F012F8F2
:101DC8007B681B68FA681A607B682022C3F8882041
:101DD8007B68002283F88420002318461037BD460C
:101DE80080BD000080B485B000AF78607B685B6E12
:101DF800002B08D17B680122A3F86A207B680122A6
:101E0800A3F8682031E00823FB730823BB737B68C1
:101E18001B689B685B0EDBB203F007037B737B6870
:101E28001B689B685B0FDBB203F007033B73BB7B4C
:101E38003A7B11498A5C02FB03F33A7B0F498A5CBF
:101E480093FBF2F39AB27B68A3F86A20FB7B7A7B58
:101E580009498A5C02FB03F37A7B08498A5C93FB95
:101E6800F2F39AB27B68A3F8682000BF1437BD4626
:101E78005DF8047B704700BF643100086C310008CE
:101E880080B582B000AF0023FB71032000F036FC60
:101E98000F2000F00DF80346002B02D00123FB7140
:101EA80001E001F0F1F8FB7918460837BD4680BD1E
:101EB80080B584B000AF78600023FB73164B1B68B5
:101EC800002B22D0154B1A68134B1B684FF47A71FC
:101ED800B1FBF3F3B2FBF3F3184600F042FC034600
:101EE800002B0FD17B680F2B09D8002279684FF09F
:101EF800FF3000F00EFC0A4A7B68136007E00123FC
:101F0800FB7304E00123FB7301E00123FB73FB7BFC
:101F180018461037BD4680BD08000020000000208C
:101F28000400002080B400AF054B1A68054B1B68FD
:101F38001344034A136000BFBD465DF8047B704735
:101F4800280000200800002080B400AF034B1B6865
:101F58001846BD465DF8047B704700BF2800002086
:101F680080B584B000AF7860FFF7EEFFB8607B689B
:101F7800FB60FB68B3F1FF3F04D0094B1B68FA68AC
:101F88001344FB6000BFFFF7DFFF0246BB68D31AAC
:101F9800FA689A42F7D800BF00BF1037BD4680BD27
:101FA8000800002080B487B000AF2C4B9B6803F07A
:101FB8000C03042B02D12A4B3B6147E0274B9B685B
:101FC80003F00C03082B02D1264B3B613EE0234B68
:101FD8009B6803F00C030C2B36D1204BDB6803F015
:101FE8000303FB601D4BDB681B0903F00F03013380
:101FF800BB60FB68032B0CD11A4ABB68B2FBF3F336
:10200800164AD268120A02F07F0202FB03F37B61D0
:102018000CE0134ABB68B2FBF3F3104AD268120A09
:1020280002F07F0202FB03F37B6100BF0B4BDB680E
:102038005B0E03F0030301335B007B607A697B6806
:10204800B2FBF3F33B6101E000233B613B691846B7
:102058001C37BD465DF8047B704700BF0010024086
:102068000024F40000127A0080B400AF034B1B6810
:102078001846BD465DF8047B704700BF000000208D
:1020880080B500AFFFF7F0FF0246064B9B681B0ABE
:1020980003F007030449CB5C03F01F0322FA03F3A0
:1020A800184680BD001002404431000880B500AFDA
:1020B800FFF7DAFF0246064B9B68DB0A03F00703CB
:1020C8000449CB5C03F01F0322FA03F3184680BDD2
:1020D800001002404431000880B487B000AF786037
:1020E800396000237B615AE13B681A6801217B69EA
:1020F80001FA03F31340FB60FB68002B00F04C81EE
:102108003B685B6803F00303012B05D03B685B6801
:1021180003F00303022B30D17B689B683B617B692A
:102128005B00032202FA03F3DB433A6913403B6185
:102138003B68DA687B695B0002FA03F33A69134388
:102148003B617B683A699A607B685B683B61012206
:102158007B6902FA03F3DB433A6913403B613B684E
:102168005B681B0903F001027B6902FA03F33A6911
:1021780013433B617B683A695A603B685B6803F0CC
:102188000303032B17D07B68DB683B617B695B002B
:10219800032202FA03F3DB433A6913403B613B68CD
:1021A8009A687B695B0002FA03F33A6913433B615F
:1021B8007B683A69DA603B685B6803F00303022BCB
:1021C80023D17B69DA087B68083253F822303B61F7
:1021D8007B6903F007039B000F2202FA03F3DB433A
:1021E8003A6913403B613B681A697B6903F007034E
:1021F8009B0002FA03F33A6913433B617B69DA08EF
:102208007B680832396943F822107B681B683B6198
:102218007B695B00032202FA03F3DB433A6913404C
:102228003B613B685B6803F003027B695B0002FA71
:1022380003F33A6913433B617B683A691A603B6868
:102248005B6803F44033002B00F0A6805B4B1B6EE9
:102258005A4A43F001031366584B1B6E03F00103FF
:10226800BB60BB68564A7B699B08023352F823302F
:102278003B617B6903F003039B000F2202FA03F31F
:10228800DB433A6913403B617B68B3F1904F1FD041
:102298007B684C4A934219D07B684B4A934213D0CF
:1022A8007B684A4A93420DD07B68494A934207D0DB
:1022B8007B68484A934201D105230AE0062308E0D7
:1022C800042306E0032304E0022302E0012300E0E4
:1022D80000237A6902F00302920093403A6913439B
:1022E8003B6137497B699B0802333A6941F82320EF
:1022F800394B9B683B61FB68DB433A6913403B61A0
:102308003B685B6803F48013002B03D03A69FB68D1
:1023180013433B61304A3B6993602F4BDB683B6159
:10232800FB68DB433A6913403B613B685B6803F435
:102338000013002B03D03A69FB6813433B61264A1C
:102348003B69D360244B5B683B61FB68DB433A69BC
:1023580013403B613B685B6803F40033002B03D0F8
:102368003A69FB6813433B611B4A3B6953601A4B4C
:102378001B683B61FB68DB433A6913403B613B6880
:102388005B6803F48033002B03D03A69FB6813437E
:102398003B61114A3B6913607B6901337B613B6890
:1023A8001A687B6922FA03F3002B7FF49DAE00BF05
:1023B80000BF1C37BD465DF8047B70470010024023
:1023C800000001400004004800080048000C0048D4
:1023D80000100048001400480004014080B485B093
:1023E80000AF78600023FB737B6893F82530DBB27D
:1023F800022B05D07B680422DA630123FB7337E0E4
:102408007B681B681A687B681B6822F00E021A60DA
:102418007B689B6C1A687B689B6C22F480721A60DC
:102428007B681B681A687B681B6822F001021A60C7
:102438007B685B6C03F01F027B681B6C012101FA4F
:1024480002F25A607B68DB6C7A68126D5A607B68AE
:102458005B6D002B0CD07B685B6D1A687B685B6DCD
:1024680022F480721A607B689B6D7A68D26D5A601C
:102478007B68012283F825207B68002283F82420CA
:10248800FB7B18461437BD465DF8047B704780B562
:1024980084B000AF78600023FB737B6893F8253025
:1024A800DBB2022B0DD07B680422DA637B68012241
:1024B80083F825207B68002283F824200123FB73FE
:1024C80047E07B681B681A687B681B6822F00E026D
:1024D8001A607B681B681A687B681B6822F0010217
:1024E8001A607B689B6C1A687B689B6C22F480720C
:1024F8001A607B685B6C03F01F027B681B6C012110
:1025080001FA02F25A607B68DB6C7A68126D5A60D5
:102518007B685B6D002B0CD07B685B6D1A687B68F1
:102528005B6D22F480721A607B689B6D7A68D26D4D
:102538005A607B68012283F825207B68002283F893
:1025480024207B689B6B002B03D07B689B6B78688F
:102558009847FB7B18461037BD4680BD80B485B0D0
:1025680000AF78607B6803F00703FB600C4BDB6807
:10257800BB60BA684FF6FF031340BB60FB681A02E2
:10258800BB68134343F0BF6343F40033BB60044AA2
:10259800BB68D36000BF1437BD465DF8047B704745
:1025A80000ED00E080B400AF044BDB681B0A03F0C9
:1025B80007031846BD465DF8047B704700ED00E050
:1025C80080B483B000AF0346FB7197F90730002B46
:1025D8000BDBFB7903F01F02074997F907305B090A
:1025E800012000FA02F241F8232000BF0C37BD4653
:1025F8005DF8047B704700BF00E100E080B483B061
:1026080000AF03463960FB7197F90730002B0ADBEE
:102618003B68DAB20C4997F907301201D2B20B4481
:1026280083F800230AE03B68DAB20849FB7903F033
:102638000F03043B1201D2B20B441A7600BF0C37C9
:10264800BD465DF8047B704700E100E000ED00E066
:1026580080B489B000AFF860B9607A60FB6803F0B5
:102668000703FB61FB69C3F10703042B28BF04239D
:10267800BB61FB690433062B02D9FB69033B00E00D
:1026880000237B614FF0FF32BB6902FA03F3DA43A0
:10269800BB681A407B699A404FF0FF317B6901FAA9
:1026A80003F3D9437B680B40134318462437BD46D0
:1026B8005DF8047B7047000080B582B000AF786099
:1026C8007B68013BB3F1807F01D301230FE00A4A05
:1026D8007B68013B53600F214FF0FF30FFF78EFFFF
:1026E800054B00229A60044B07221A600023184603
:1026F8000837BD4680BD00BF10E000E080B582B05D
:1027080000AF78607868FFF729FF00BF0837BD463B
:1027180080BD80B586B000AF0346B9607A60FB73B0
:10272800FFF740FF78617A68B9687869FFF790FF2A
:10273800024697F90F3011461846FFF75FFF00BFB2
:102748001837BD4680BD80B582B000AF0346FB7127
:1027580097F907301846FFF733FF00BF0837BD4623
:1027680080BD80B582B000AF78607868FFF7A4FFBD
:10277800034618460837BD4680BD000080B400AF48
:10278800054B1B68044A43F48073136000BFBD46C1
:102798005DF8047B704700BF0010024080B400AFB2
:1027A800074B1B6803F48063B3F5806F01D10123E5
:1027B80000E000231846BD465DF8047B704700BF63
:1027C8000010024080B483B000AF7860074B5B68AC
:1027D80023F0FE427B681B06044913434B6000BF8D
:1027E8000C37BD465DF8047B704700BF00100240FF
:1027F80080B483B000AF7860064B9B6823F0030277
:1028080004497B6813438B6000BF0C37BD465DF8F5
:10281800047B70470010024080B400AF044B9B68F3
:1028280003F00C031846BD465DF8047B704700BFF3
:102838000010024080B483B000AF7860064B9B68FC
:1028480023F0F00204497B6813438B6000BF0C3708
:10285800BD465DF8047B70470010024080B483B029
:1028680000AF7860064B9B6823F4E06204497B68FC
:1028780013438B6000BF0C37BD465DF8047B70477F
:102888000010024080B483B000AF7860064B9B68AC
:1028980023F4605204497B6813438B6000BF0C37F4
:1028A800BD465DF8047B70470010024080B400AF5D
:1028B800054B1B68044A43F08073136000BFBD4694
:1028C8005DF8047B704700BF0010024080B400AF81
:1028D800074B1B6803F00073B3F1007F01D101239C
:1028E80000E000231846BD465DF8047B704700BF32
:1028F8000010024080B485B000AFF860B9607A601B
:102908003B600A4BDA680A4B1340F968BA6811430E
:102918007A68120211433A680A4304491343CB60A8
:1029280000BF1437BD465DF8047B704700100240B5
:102938000C80FFF980B400AF054BDB68044A43F014
:102948008073D36000BFBD465DF8047B704700BF4D
:102958000010024080B483B000AF7860064B1B685B
:1029680023F00F0204497B6813430B6000BF0C3748
:10297800BD465DF8047B70470020024080B400AF7C
:10298800044B1B6803F00F031846BD465DF8047B33
:10299800704700BF0020024080B483B000AF786069
:1029A800064B1B6823F4C06204497B6813430B6021
:1029B80000BF0C37BD465DF8047B704700700040CF
:1029C80080B485B000AF786039607B685B69FB6074
:1029D800FA683B6813401A04FB68D9433B680B400C
:1029E8001A437B689A6100BF1437BD465DF8047BC3
:1029F8007047000080B500AFFFF742FA00F014F806
:102A080000F08AF800F06AFA0548FDF789FF1021FE
:102A18000448FFF7D5FF6420FFF7A2FA00BFF6E7E6
:102A28002C0000200004004880B500AF0220FFF70A
:102A380091FF00BFFFF7A2FF0346022BFAD14FF424
:102A48000070FFF7A9FFFFF799FE00BFFFF7A6FE8A
:102A58000346012BFAD14020FFF7B4FE00230822D9
:102A680000210220FFF746FFFFF764FFFFF71EFF74
:102A780000BFFFF72BFF0346012BFAD10320FFF716
:102A8800B7FE00BFFFF7C8FE03460C2BFAD10020A3
:102A9800FFF7D0FE0020FFF7E1FE0020FFF7F2FE6F
:102AA8000648FDF763FD0F20FFF702FA0346002BE7
:102AB80001D000F005F800BF80BD00BF0090D00332
:102AC80080B400AF72B600BF00BFFDE780B485B028
:102AD80000AF7860084BDA6C07497B681343CB6416
:102AE800054BDA6C7B681340FB60FB6800BF14374A
:102AF800BD465DF8047B70470010024080B483B087
:102B080000AF786039607B683A689A6200BF0C371A
:102B1800BD465DF8047B704780B586B000AF3B4684
:102B280000221A605A609A60DA601A615A610420B9
:102B3800FFF7CCFF2020FFF7C9FF4020FFF7C6FFB3
:102B48000120FFF7C3FF0220FFF7C0FF1021C44890
:102B5800FFF7D4FF4FF400533B6003237B6000234F
:102B68003B613B461946BF48FDF75BFE4FF4804387
:102B78003B6003237B6000233B613B461946B94811
:102B8800FDF74FFE4FF400433B6003237B600023B7
:102B98003B613B461946B348FDF743FE01233B60C2
:102BA80003237B6000233B613B461946AE48FDF793
:102BB80038FE02233B6003237B6000233B613B46D6
:102BC8001946A948FDF72DFE4FF480633B600323A7
:102BD8007B6000233B613B461946A448FDF721FE74
:102BE80001233B6003237B6000233B613B4619467E
:102BF8004FF09040FDF715FE02233B6003237B60F6
:102C080000233B613B4619464FF09040FDF709FE13
:102C180004233B6003237B6000233B613B4619464A
:102C28004FF09040FDF7FDFD08233B6003237B60D8
:102C380000233B613B4619464FF09040FDF7F1FDFC
:102C480010233B6003237B6000233B613B4619460E
:102C58004FF09040FDF7E5FD20233B6003237B60A8
:102C680000233B613B4619464FF09040FDF7D9FDE4
:102C780040233B6003237B6000233B613B461946AE
:102C88004FF09040FDF7CDFD80233B6003237B6030
:102C980000233B613B4619464FF09040FDF7C1FDCC
:102CA80001233B6003237B6000233B613B461946BD
:102CB8006B48FDF7B6FD02233B6003237B600023CE
:102CC8003B613B4619466648FDF7ABFD04233B6074
:102CD80003237B6000233B613B4619466048FDF7B0
:102CE800A0FD4FF480633B6003237B6000233B61BE
:102CF8003B4619465A48FDF794FD4FF400633B6084
:102D080003237B6000233B613B4619465448FDF78B
:102D180088FD4FF480533B6003237B6000233B61B5
:102D28003B4619464E48FDF77CFD4FF400533B6087
:102D380003237B6000233B613B4619464848FDF767
:102D480070FD4FF480433B6003237B6000233B61AD
:102D58003B4619464248FDF764FD4FF400433B608B
:102D680003237B6000233B613B4619463C48FDF743
:102D780058FD4FF480733B6003237B6000233B6165
:102D88003B4619464FF09040FDF74BFD4FF400735A
:102D98003B6003237B6000233B613B4619464FF0B1
:102DA8009040FDF73EFD4FF480633B6003237B605A
:102DB80000233B613B4619464FF09040FDF731FD3B
:102DC8004FF400633B6003237B6000233B613B4679
:102DD80019464FF09040FDF724FD4FF480533B60B7
:102DE80003237B6000233B613B4619464FF090402C
:102DF800FDF717FD4FF400433B6003237B6000237E
:102E08003B613B4619464FF09040FDF70AFD082309
:102E18003B6003237B6000233B613B461946104817
:102E2800FDF7FFFC10233B6001237B600023BB60A0
:102E38000023FB6000233B613B4619460848FDF729
:102E4800F0FC20233B6003237B6000233B613B466F
:102E580019460348FDF7E5FC4FF4807308E000BF0E
:102E68000004004800080048001400480018004802
:102E78003B6003237B6000233B613B4619460948BE
:102E8800FDF7CFFC4FF400733B6003237B60002306
:102E98003B613B4619460348FDF7C3FC00BF1837A2
:102EA800BD4680BD0004004880B483B000AF7860A0
:102EB800094BD3F888207B681B0CDB431A407B68DE
:102EC8009BB205491343C1F8883000BF0C37BD4693
:102ED8005DF8047B704700BF0010024080B500AF6A
:102EE800224B234A1A60214B4FF4E1325A601F4BA0
:102EF80000229A601D4B0022DA601C4B00221A61E6
:102F08001A4B0C225A61194B00229A61174B002266
:102F1800DA61164B00221A62144B00225A62134BD4
:102F280000229A621148FDF7FBFC0346002B01D0F2
:102F3800FFF7C6FD00210D48FEF7D7FE0346002B1C
:102F480001D0FFF7BDFD00210848FEF70CFF03463E
:102F5800002B01D0FFF7B4FD0448FEF78DFE0346B1
:102F6800002B01D0FFF7ACFD00BF80BD2C00002076
:102F78000038014080B58AB000AF786007F11403CB
:102F880000221A605A609A60DA601A617B681B68CE
:102F98001D4A934233D14FF44030FFF785FF1B4B56
:102FA8001B6E1A4A43F480431366184B1B6E03F4D6
:102FB80080433B613B69154BDB6C144A43F00203C9
:102FC800D364124BDB6C03F00203FB60FB68C02385
:102FD8007B610223BB610023FB6100233B62072363
:102FE8007B6207F1140319460948FFF775F80022B8
:102FF80000212520FFF78DFB2520FFF7A4FB00BF4C
:103008002837BD4680BD00BF00380140001002408F
:103018000004004880B400AF00BFFDE780B400AFF3
:1030280000BFFDE780B400AF00BFFDE780B400AF8C
:1030380000BFFDE780B400AF00BFFDE780B400AF7C
:1030480000BFBD465DF8047B704780B400AF00BF89
:10305800BD465DF8047B704780B400AF00BFBD4635
:103068005DF8047B704780B500AFFEF75BFF00BFDB
:1030780080BD000080B500AF0248FDF7B1FC00BF7D
:1030880080BD00BF2C00002080B582B000AF0F4B80
:103098001B6E0E4A43F0010313660C4B1B6E03F0C4
:1030A80001037B607B68094B9B6D084A43F08053A2
:1030B8009365064B9B6D03F080533B603B68FDF7BF
:1030C8001FFC00BF0837BD4680BD00BF001002408E
:1030D8000D488546FDF738FA0C480D490D4A00237E
:1030E80002E0D458C4500433C4188C42F9D30A4AB5
:1030F8000A4C002301E013600432A242FBD3FDF71F
:10310800FFF9FFF777FCFEE70080002000000020B1
:103118000C000020843100080C000020F80000207A
:10312800FEE70000F8B500BFF8BC08BC9E46704733
:0C313800F8B500BFF8BC08BC9E4670470C
:103144000000000001020304010002000400060064
:1031540008000A000C00100020004000800000015C
:103164000101010307010000080402040801010130
:08317400D4D0FF7F0100000030
:04317C00FD01000849
:04318000D901000869
:0C3184000024F400100000000100000016
:04000005080030D9E6
:00000001FF
